:020000040000FA
:06000000E3EF06F0120020
:020006000000F8
:06000800EAEF01F0120016
:02000E001200DE
:06001800F3EF01F01200FD
:02001E00D9CF38
:10002000E6FFE1CFD9FFFE0EDB5003E1949482940A
:1000300001D09484E552E7CFD9FF1200D9CFE6FF73
:10004000E1CFD9FFFE0EDB5003E19492829201D002
:100050009482E552E7CFD9FF1200010EE66EDFDF92
:10006000E552010EE66EEADFE552D7D8E66AD7DF41
:10007000E552D3D8E66AE2DFE5521200E66ACFDF46
:10008000E552CBD8E66ADADFE552C7D8010EE66E54
:10009000D5DFE552C2D8010EE66EC1DFE55212008F
:1000A000C7D8010EE66ECADFE552C2D8E66AC6DFDF
:1000B000E5521200D9CFE6FFE1CFD9FF030EE126CA
:1000C000010EF36E020EF3CFDBFFDF6A080EDF5C7A
:1000D0001AE2FE0EDB50800BE76E010EE7CFDBFF6E
:1000E000DB5004E1E66A9BDFE55204D0010EE66EC8
:1000F00096DFE552D5DFFE0EDB50020DFE0EF3CF8C
:10010000DBFFDF2AE3D7010EE66E89DFE55290D8E8
:10011000010EE66E93DFE5528BD882A402D0020E68
:10012000DB6A6AD8E66A8ADFE552020EDB50026EAD
:10013000030EE15C03E200D0E16AE552E16E025099
:10014000E552E7CFD9FF1200D9CFE6FFE1CFD9FFC3
:10015000020EE126010EDB6ADF6A080EDF5C19E29F
:10016000010EE66E6BDFE55258D8010EDB50020D32
:10017000010EF3CFDBFF82A406D0DB500109E76E4E
:10018000010EE7CFDBFFE66A59DFE55246D8DF2AEA
:10019000E4D7010EDB50026E020EE15C03E200D0F8
:1001A000E16AE552E16E0250E552E7CFD9FF120055
:1001B000E66A35DFE55231D8010EE66E3FDFE552E3
:1001C0002CD81AD8E66A3ADFE55227D8010EE66E37
:1001D00026DFE5520DEF01F0010EE66E20DFE5525D
:1001E0001CD8010EE66E2ADFE55217D805D8E66A5C
:1001F00025DFE5520DEF01F0D9CFE6FFE1CFD9FFC2
:10020000E652DF68DF5004E082B202D0DF06FAD7A0
:10021000E552E552E7CFD9FF1200000000000000D0
:1002200000000000000000000000000000001200BC
:0A02300000000000000000001200B2
:06023A000F011B6B1C6BA1
:1002400081B803D0010E1B111B6F81BA03D0020EBF
:100250001B111B6F12000F011F6B206B800E1B19EF
:1002600001E11C5147E0400E1B1901E11C513EE029
:10027000200E1B1901E11C5135E0100E1B1901E184
:100280001C512CE0080E1B1901E11C5123E0040E47
:100290001B1901E11C511AE0020E1B1901E11C514E
:1002A00011E0010E1B1901E11C5108E01B5101E195
:1002B0001C5103E01F69206B21D020D0010E1F6F5D
:1002C000206B1CD0020E1F6F206B18D0030E1F6F07
:1002D000206B14D0040E1F6F206B10D0050E1F6F03
:1002E000206B0CD0060E1F6F206B08D0070E1F6FFF
:1002F000206B04D0080E1F6F206B00D012000F017E
:100300001F5120115DE021511F1902E122512019D6
:1003100052E11E6B1D51026E036AD890035004E631
:10032000FA0E025C000E035801E21D2B020E1D5D49
:1003300041E1080E1F1901E1205139E0070E1F1994
:1003400001E1205131E0060E1F1901E1205129E0A1
:10035000050E1F1901E1205121E0040E1F1901E1D2
:10036000205119E0030E1F1901E1205111E0020E86
:100370001F1901E1205109E0010E1F1901E120516F
:1003800001E018D0010E236F15D0020E236F12D09A
:10039000030E236F0FD0040E236F0CD0050E236FB6
:1003A00009D0060E236F06D0070E236F03D0080E68
:1003B000236F00D004D01FCF21FF20CF22FF09D010
:1003C0001E2B1E51020805E21E6B1D6B216B226B5A
:0403D000236B120089
:0C03D400DACFE4FFE2CFDAFFE652E55298
:1003E000E5CFDAFF1100D8CFE4FFE0CFE4FFE46E01
:1003F000DACFE4FFE2CFDAFFE9CFE4FFEACFE4FFB0
:10040000F6CFE4FFF7CFE4FFF5CFE4FFF3CFE4FF4F
:10041000F4CFE4FFFACFE4FF00EE00F0020EE804B0
:1004200003E3EECFE4FFFBD700EE02F0020EE80498
:1004300003E3EECFE4FFFBD7E65283EC06F0E55290
:1004400000EE03F0020EE80403E3E5CFEDFFFBD777
:1004500000EE01F0020EE80403E3E5CFEDFFFBD769
:10046000E5CFFAFFE5CFF4FFE5CFF3FFE5CFF5FFEA
:10047000E5CFF7FFE5CFF6FFE5CFEAFFE5CFE9FFF0
:10048000E5CFDAFFE550E5CFE0FFE5CFD8FF10007C
:100490000CD84ED82ED804000F012C5101E003D007
:1004A000DBEC05F000D0F7D71200700ED36E9B8EF8
:1004B000010ED16E806A896A926A816A8A6A300EF8
:1004C000936E826A8B6A0E0E946E9D6AA06AC00E4D
:1004D000D06EF26A800EF16EF06A9F6AA26AC26AFA
:1004E000C16AC06A7E6A7F6A7C6A7D6A010ED16ECB
:1004F0001200040EE66EE66AE66A240EE66E0F0E41
:10050000E66E98EC06F0026E050EE15E0250090EF2
:10051000E66EE66AE66A1B0EE66E0F0EE66E98EC75
:1005200006F0026E050EE15E02500F012C6B120008
:0C053000FFEC04F075EC06F0FFEF06F0A5
:04053C00010EE66E58
:1005400016D8E552010EE66E20D8E552010EE66E91
:1005500061EC05F0E552E66A18D8E552010EE66E48
:1005600061EC05F0E552E66A02D8E5521200D9CFF7
:10057000E6FFE1CFD9FFFE0EDB5002E18B9801D000
:100580008B88E552E7CFD9FF1200D9CFE6FFE1CF44
:10059000D9FFFE0EDB5002E18B9A01D08B8AE55227
:1005A000E7CFD9FF1200D9CFE6FFE1CFD9FF020E86
:1005B000E126DF6A080EDF5C1BE2FE0EDB50010B5A
:1005C000E76E010EE7CFDBFFDB5004E1E66ADDDF1B
:1005D000E55204D0010EE66ED8DFE55213D8FE0EC8
:1005E000DB407F0BE76EFE0EE7CFDBFFDF2AE2D7B3
:1005F000020EE15C02E2E16AE552E16EE552E7CF0C
:10060000D9FF1200010EE66E61EC05F0E552010E15
:10061000E66EADDFE552010EE66E61EC05F0E552E7
:10062000E66AA5DFE552010EE66E61EC05F0E552E3
:100630001200E66A9CDFE552010EE66E61EC05F001
:10064000E552010EE66EA1DFE552010EE66E61ECA9
:1006500005F0E552010EE66E8ADFE552010EE66E08
:1006600061EC05F0E552010EE66E8FDFE552010EFA
:10067000E66E61EC05F0E552E66A79DFE552E66A7E
:1006800084DFE552120082A603D0010E03D002D00F
:06069000000E00D0120074
:0A0696002DEC00F0880EE66E5AEC21
:1006A00000F0E55228CFE6FF5AEC00F0E55229CFE2
:1006B000E6FF5AEC00F0E5522ACFE6FF5AEC00F0D4
:1006C000E5523EEF00F0D9CFE6FFE1CFD9FF2DECA8
:1006D00000F0880EE66E5AEC00F0E552FE0EDBCF1D
:1006E000E6FF5AEC00F0E5523EEC00F0E552E7CFB1
:1006F000D9FF1200D0DF780EE66EE5DFE55212007A
:10070000790EE66EE0DFE552E668DDDFE5521200C5
:10071000D9CFE6FFE1CFD9FF0A0EF36EFE0EDBCF95
:10072000F4FFF350F45C2FE2080EF36EFD0EDBCF06
:10073000F4FFF350F45C27E2100EF36EFC0EDBCFF7
:10074000F4FFF350F45C1FE2FE0EDB50F76A640F17
:10075000F66E0D0EF7220800F5CF28FFFD0EDB50D8
:10076000F76A6E0FF66E0D0EF7220800F5CF29FF1F
:10077000FC0EDB50F76A760FF66E0D0EF7220800BE
:10078000F5CF2AFF15D0640EF66E0D0EF76E080039
:10079000F5CF28FF6E0EF66E0D0EF76E0800F5CF42
:1007A00029FF760EF66E0D0EF76E0800F5CF2AFFC4
:0807B000E552E7CFD9FF12006A
:0807B8000F012B51060A49E074
:1007C000030A3DE0010A31E0070A26E0010A1AE0C7
:1007D000030A0EE0010A01E046D0E66A010EE66E69
:1007E000050EE66E88EC03F0E552E552E55243D083
:1007F000E66A010EE66EE66A88EC03F0E552E55221
:10080000E55239D0E66AE66A050EE66E88EC03F03A
:10081000E552E552E5522FD0E66AE66AE66A88ECD0
:1008200003F0E552E552E55226D0050EE66EE66A83
:10083000E66A88EC03F0E552E552E5521CD00A0E58
:10084000E66EE66AE66A88EC03F0E552E552E552A8
:1008500012D00F0EE66EE66AE66A88EC03F0E55207
:10086000E552E55208D0E66AE66AE66A88EC03F0EB
:10087000E552E552E55212000F012B2B2B510608D1
:1008800001E22B6B12000F012B51000801E22B0734
:02089000120054
:0E089200D9CFE6FFE1CFD9FF9EEC02F0FE0EBB
:1008A000DBCFE6FFD3EC02F0E55219EC03F0010ECA
:1008B000E66E4DEC05F0E552FD0EDB5005E0FE0E58
:1008C000DBCFE6FF05D8E552E552E7CFD9FF1200AE
:1008D000D9CFE6FFE1CFD9FFE652DF6A43EC03F060
:1008E00000090FE0640EE66E4DEC05F0E552DF2ADC
:1008F000FE0EDBCFE6FF0AD8E552DF5C01E301D054
:10090000EDD7E552E552E7CFD9FF1200D9CFE6FF88
:10091000E1CFD9FFE652010EF36EFE0EDBCFF4FFFE
:10092000F350F45C0FE3FE0EDB507B080BE3FE0E8E
:10093000DB50F76A340FF66E0B0EF7220800F55005
:10094000DF6E07D0340EF66E0B0EF76E0800F55012
:10095000DF6EDF5000D0E552E552E7CFD9FF12003D
:10096000060EF66E000EF76E000EF86E0F0109000F
:10097000F550166F0900F550176F03E1166701D0A7
:100980003DD00900F550116F0900F550126F0900B4
:10099000F550136F09000900F550E96E0900F55094
:1009A000EA6E090009000900F550146F0900F550BE
:1009B000156F09000900F6CF18FFF7CF19FFF8CF20
:1009C0001AFF11CFF6FF12CFF7FF13CFF8FF0F0179
:1009D000145302E1155307E00900F550EE6E1407B9
:1009E000F8E21507F9D718CFF6FF19CFF7FF1ACF9E
:0E09F000F8FF0F011607000E175BBFD71200AD
:0209FE00F29A6B
:100A0000F294F194D76AD66A860ED56E1200F29AE5
:100A1000F294D56A1200D9CFE6FFE1CFD9FF020EDA
:100A2000E126D650DF6E010ED7CFDBFFDECF02F01E
:100A3000DDCF03F002C0F3FF03C0F4FF020EE15C60
:100A400003E200D0E16AE552E16EE552E7CFD9FF5B
:100A50001200E1DFF3CF00FFF4CF01FFDCDFF3CFC3
:100A600002FFF4CF03FFD7DFF3CF04FFF4CF05FF7E
:100A7000D2DFF3CF06FFF4CF07FFCDDFF3CF0AFFBE
:100A8000F4CF0BFFC8DFF3CF0CFFF4CF0DFFC3DFB4
:0A0A9000F3CF0EFFF4CF0FFF1200AA
:060A9A00D9CFE6FFE1CF19
:100AA000D9FFFE0EDB5009E00400040EE66EC3EC35
:100AB00006F0E552FE0EDB06F4D7E552E7CFD9FF8C
:100AC0001200D9CFE6FFE1CFD9FFFE0EDB5009E0DF
:100AD0000400020EE66E0BEC07F0E552FE0EDB069C
:100AE000F4D7E552E7CFD9FF1200D9CFE6FFE1CF27
:100AF000D9FFE652D36AFE0EDB5015E0070EDF6E1B
:100B0000DF5008E00400010EE66EC3EC06F0E5528B
:100B1000DF06F6D70400080EE66EF1EC06F0E552AB
:100B2000FE0EDB06E8D7700ED36EE552E552E7CF36
:040B3000D9FF1200D7
:0C0B3400550D0C110D0D0D11100D0C17BE
:100B40001616131415161616121113111112151369
:100B5000151616161414151515161210121111115A
:100B60000F0F101013131313130F0D120F131B1766
:100B7000101517151917191717171316151811111E
:100B8000111514171517121012151417190A0A0A3D
:100B90000A0A0A0C0D0C0D0B0B0B0C0B0B0B0C0AA1
:100BA0000A0A0A0A0A0A0A0A0A0A0A0A0A0B0E5555
:060BB0006E3232323232D7
:0A0BB6000BEC05F00F010251F35C97
:100BC000026E0351F458036EE20E025C040E0358E9
:100BD0000DE30BEC05F0F3CF02FFF4CF03FF1DECA8
:100BE00001F02BEC01F07FEC01F001D812000F01B5
:100BF0002351020A10E0030A01E01AD0236B040E0D
:100C0000E66E34EC06F0E5523CEC04F0DCEC03F06C
:100C10007AEC03F00DD0236B040EE66E34EC06F094
:100C2000E552E66AE66A49EC04F0E552E55200D086
:020C30001200B0
:0E0C32000F01242B020E245D02E3246B01D877
:100C40001200020E0F012515020801E189722551DB
:100C500001E103D8120089821200899212000F016B
:100C6000255101E025071200D9CFE6FFE1CFD9FFDA
:100C7000FE0EDBCF25FFE552E7CFD9FF12000F01B3
:100C8000262B000E2723900E265D010E275903E325
:080C9000266B276BE4DF120064
:080C98000BEC05F00F01005107
:100CA000F35C026E0151F458036E710E025C020E89
:100CB000035806E30BEC05F0F3CF00FFF4CF01FF80
:100CC0000BEC05F00F010251F35C026E0351F45876
:100CD000036EE20E025C040E035806E30BEC05F013
:0A0CE000F3CF02FFF4CF03FF120070
:060CEA00A082A192A2927B
:100CF000FE0EB36E700EB26E010EB16E1200A092B7
:100D0000A192B16A1200A150020B01E0010E026E25
:100D1000A050020B01E0010E021409E0A192FE0EA8
:100D2000B326700EB22619EC06F03FEC06F0120066
:100D3000FE0EE3CFE9FFFF0EE3CFEAFFE9CFF3FFBB
:100D4000EACFF4FFFB0EE35003E1FC0EE35009E0B1
:100D5000FB0EE30602E2FC0EE306FD0EE350EE6E30
:040D6000F1D71200B5
:0C0D6400D0D1D2D3D4D5D6D7D8D9E0E175
:100D7000E2E3E4E5E6E7C0C1C2C3C4C5C6C7C8C96B
:060D8000CACBCCCDCECFA2
:0A0D8600FF0EE350046E480E01D08A
:100D90004C0EE76EE72EFED7E76AE72EFED7042E4D
:060DA000F7D7000012006D
:0A0DA600600EF36E00EE00F00F0E79
:100DB00001D81200EA6002D0EE6AFCD7F350E96075
:060DC0001200EE6AFCD7F0
:0A0DC6001EEE00F02EEE00F0F86AB9
:100DD000019CB0EC04F007EC00F048EC02F0FBD70B
:020DE0001200FF
:0E0DE200FF0EE350046E1B0E00D001D0200E59
:0E0DF000E76EE72EFED7042EFAD700D01200D1
:020DFE00F28E73
:100E0000F28C1200F29EF29C1200F290F286120016
:060E1000F296F2901200C0
:0A0E1600FF0EE350E84E120000004A
:0C0E200000D000D000D0E82EFAD712005D
:020000040030CA
:0100010008F6
:010002000EEF
:0100030010EC
:010005008179
:010006008178
:010008000FE8
:01000900C036
:01000A000FE6
:01000B00E014
:01000C000FE4
:01000D0040B2
:00000001FF
